:060000000A128A11122809
:10000800FE00030E83120313B1000408B2000A08AD
:10001800B3007F08B4000A168A11E9280A128A1167
:1000280015280A128A11FA270A128A11D4000A120C
:100038008A11FB270A128A11D5000A128A11FC2795
:100048000A128A11D6000A128A11FD270A128A1189
:10005800D7000A128A11FE270A128A11D8008317BC
:10006800D6308400EF300A168A1566240A128A11DF
:100078001030840050300A168A1566240A128A1134
:100088008313CE308400EA300A168A1566240A12D1
:100098008A114A30840054300A168A15662483016E
:1000A8000A168A15452E831603133908831203137B
:1000B800BE0083160313380883120313BD000A1603
:1000C8008A1100200A128A11831203133D08C60000
:1000D8003E08C7003F08C800AE30C3002330C40044
:1000E8004130C5000A128A115A260A128A1183124F
:1000F8000313430883160313AA0083120313440847
:1001080083160313AB0083120313450883160313E6
:10011800AC000A168A11DD230A128A11831603130A
:100128002B08CF002A08CE004F08BB004E08BA00A3
:100138003B0DBB0CBA0C3B0DBB0CBA0C3A08831236
:1001480003139500831603134F08BB004E08BA002B
:100158003B0DBB0CBA0C3B0DBB0CBA0C3A08831216
:1001680003139B00831603134E080139BA00BA0E15
:10017800831203131708831603133A06EF393A0656
:10018800831203139700831603134E080239BA002B
:10019800BA0EBA0D831203131708831603133A060F
:1001A800DF393A06831203139700831603134E08A8
:1001B8000139BA00BA0E831203131D0883160313FC
:1001C8003A06EF393A06831203139D008316031388
:1001D8004E080239BA00BA0EBA0D831203131D086D
:1001E800831603133A06DF393A06831203139D0078
:0201F8000800FD
:10020000FF1B0A2983137F1883170008840A031928
:10021000FF0A08007F087F398A000408840A03194E
:10022000FF0A8200013400340A340034643400349C
:10023000E8340334103427342A342A342A342A3454
:100240002A342A342A342A342A342A342A342A34BE
:100250002A342A342A342A342A342A342A342A34AE
:100260002A342A342A342A342A342A342A342A349E
:100270002A342A342A342A342A342A342A342A348E
:100280002A342A342A342A342A342A342A342A347E
:100290002A342A342A342A342A342A342A342A346E
:1002A0002A342A342A342A342A342A342A342A345E
:1002B0002A342A342A342A342A342A342A342A344E
:1002C0002A342A342A342A342A342A342A342A343E
:1002D0002A342A342A342A342A342A342A342A342E
:1002E0002A342A342A342A342A342A342A342A341E
:1002F0002A34003420342034203420342034203474
:100300002034203449346634203479346F347534E1
:100310002034773461346E34743420346734693473
:100320007634653420346134203473347434653465
:100330007034203477346934743468342034313480
:1003400030343034253420346F346634203464340F
:100350007534743479342D346334793463346C34C3
:1003600065342C34203475346E34743469346C3410
:10037000203479346F3475342034743479347034E3
:100380006534203461346E347934743468346934BB
:100390006E3467342C3420347434793470346534DA
:1003A0003A340034203420342034203420342034B3
:1003B0002034203449346634203479346F34753431
:1003C0002034773461346E347434203467346934C3
:1003D00076346534203461342034733474346534B5
:1003E00070342034773469347434683420343134D0
:1003F00030343034253420346F346634203464345F
:100400007534743479342D346334793463346C3412
:1004100065342C34203466346F34723420343234F2
:100420003034303420346D3469346C346C34693495
:100430007334653463346F346E34643473342C3401
:10044000203474347934703465343A3400342034D0
:1004500020342034203420342034203420344934D3
:100460006634203479346F34753420347734613411
:100470006E3474342034673469347634653420340F
:1004800061342034733474346534703420347734F8
:1004900069347434683420343534303425342034AD
:1004A0006F346634203464347534743479342D34C4
:1004B0006334793463346C3465342C3466346F348B
:1004C0007234203433343034303420346D34693471
:1004D0006C346C3469347334653463346F346E3423
:1004E000643473342C342034743479347034653487
:1004F0003A34003420342034203420342034203462
:100500002034203449346634203479346F347534DF
:100510002034773461346E34743420346F34703462
:10052000653472346134743465342034743468341E
:1005300065342034733479347334743465346D34F1
:10054000203463346F346E34743469346E347534EB
:1005500061346C346C3479342034773469347434D5
:1005600068342034313430343034253420346F341E
:100570006634203464347534743479342D346334FF
:10058000793463346C3465342C34203474347934E5
:10059000703465343A34003420342034203420342C
:1005A00020342034203420344934663420347934E3
:1005B0006F3475342034773461346E3474342034BD
:1005C0006134633471347534693472346534203481
:1005D0007434683465342034643461347434613480
:1005E00020346F3462347434613469346E34653469
:1005F00064342034623479342034733465346E3496
:1006000073346F347234733420346F34663420346E
:10061000733479347334743465346D342C34203449
:1006200074347934703465343A34003420342034EE
:1006300020342034203420342034203449346634AB
:10064000203479346F3475342034773461346E3427
:100650007434203474346F34203469346434653431
:100660006E347434693466347934203474346834C4
:1006700065342034733479347334743465346D34B0
:100680002034703461347234733469346E346734B6
:10069000203461342034523442345334203473349F
:1006A00069346E3461346C342C34203474347934CD
:1006B000703465343A34003420342034203420340B
:1006C000203420342034203454346F3420346F34B8
:1006D0007034653472346134743465342034743465
:1006E0006834653420347334793473347434653445
:1006F0006D342C34203474347934703465342034BF
:100700006F346E3420346F347034743469346F3421
:100710006E347334203469346E342034623465347A
:100720006C346F3477342E34003420342034203449
:1007300020342034203420342034493466342034AA
:1007400079346F3475342034773461346E347434D2
:10075000203474346F3420346B346E346F34773417
:100760002034743468346534203473347434613420
:1007700074347534733420346F34663420347334F5
:1007800079347334743465346D342C3420347434D7
:100790007934703465343A340034203420342034D1
:1007A00020342034203420342034573465346C34E1
:1007B00063346F346D346534203474346F342034D2
:1007C000743468346534203449346E347634653496
:1007D00072347434653464342034503465346E3487
:1007E000643475346C3475346D34203450346C3466
:1007F00061346E3474342134003420342034203495
:1008000020342034203420342034493466342034D9
:1008100079346F3475342034773461346E34743401
:100820002034733474346F34703420347434683446
:1008300065342034733479347334743465346D34EE
:100840002C34203474347934703465343A340034C0
:1008500020342034203420342034203420342034F8
:1008600049346634203479346F3475342034773425
:1008700061346E3474342034613420346834653427
:100880006C3470342C3420347434793470346534DE
:100890003A34003459346F34753420347434793434
:1008A000703465346434203473346F346D3465349B
:1008B0007434683469346E34673420347734723475
:1008C0006F346E3467342E342034003420342034B6
:1008D00020342034203420342034203473347934CC
:1008E000733428346D34613478345F34643475344F
:1008F000743479345F346334693463346C3465340C
:100900002934003454346834653420346434753404
:10091000743479342D346334793463346C3465340D
:1009200020346F3466342034503457344D342034FE
:10093000693473343A3420340034543468346534C0
:10094000203461346E3461346C346F346734203455
:10095000763461346C3475346534203469347334DE
:100960003A342034003420342034203420342034ED
:100970002034203420347334743465347034283493
:10098000353430342C34333430343034293400347A
:1009900020342034203420342034203420342034B7
:1009A000723475346E3428342934203420342034A1
:1009B00020342034003420342034203420342034B7
:1009C000203420342034683465346C347034283456
:1009D000293420342034203420340034203420348E
:1009E00020342034203420342034203473347434C0
:1009F0006F347034283429342034203420342034A7
:100A00000034203420342034203420342034203466
:100A1000203473347434613474347534733428344A
:100A2000293420342034003420342034203420343D
:100A300020342034203420346134633471347534EC
:100A40006934723465342834293420340034203435
:100A500020342034203420342034203420344534D1
:100A6000783461346D3470346C346534203430340F
:100A70003A340034203420342034203420342034DC
:100A8000203420344534783461346D3470346C341F
:100A90006534203431343A34003420342034203466
:100AA00020342034203420342034453478346134E8
:100AB0006D3470346C346534203432343A3400345C
:100AC0002034203420342034203420342034203486
:100AD0004534783461346D3470346C34653420348A
:100AE00033343A3400342034203420342034203459
:100AF0002034203420344534783461346D347034FB
:100B00006C346534203434343A34003420342034A6
:100B100020342034203420342034203445347834B8
:100B200061346D3470346C346534203435343A3487
:100B30000034203420342034203420342034203435
:100B400020344534783461346D3470346C34653419
:100B5000203436343A3400342034203420342034E5
:100B600020342034203420344534783461346D34DA
:100B700070346C346534203437343A3400342034E3
:100B800020342034203420342034203420344534A0
:100B9000783461346D3470346C34653420343834D6
:100BA0003A340034203420342034203420342034AB
:100BB000203420344534783461346D3470346C34EE
:100BC0006534203439343A3400342034203420342D
:100BD0002034203420342034203473347434653489
:100BE00070342834323430343034293400342034F2
:100BF0002034203420342034203420342034733402
:100C000074346534703428342934003461346334E6
:100C100071347534693472346534283429340034BD
:100C200041346E3461346C346F3467343A34203478
:100C300000342C34203444347534743479343A34E8
:100C40002034003473347434613474347534733440
:100C50002834293400342C34203450345234323483
:100C60003A3420340034683465346C3470342834B9
:100C700029340034733474346F3470342834293494
:100C8000003473347434653470342834003472346E
:100C900075346E3428340034733479347334283422
:100CA0000034253464340034253400342C340034CA
:100CB0003E34003483120313430883160313A00049
:100CC00083120313440883160313A1008312031332
:100CD000450883160313A2000310210D220DA30063
:100CE0002308A4002408031D7E2E00308312031362
:100CF000C3000030C4000030C5000800831246085D
:100D000083160313A00083120313470883160313EB
:100D1000A10083120313480883160313A2000310D3
:100D2000210D220DA3002308A9002908031DA12ECF
:100D3000003083120313C3000030C4000030C5002C
:100D400008008316031329087B3EA0002008A4078F
:100D500083120313430883160313A00083120313A3
:100D6000440883160313A100831203134508831656
:100D70000313A20010300310A20CA10CA00CFF3E24
:100D8000031DBB2E2008A3002308A9008312031310
:100D9000460883160313A000831203134708831623
:100DA0000313A10083120313480883160313A20040
:100DB00010300310A20CA10CA00CFF3E031DD92E75
:100DC0002008A3002308A9068030A0002008A90558
:100DD00083120313C417C717FF30C605FF30C705BA
:100DE0000030C805003083160313A5000030A600AC
:100DF0000030A7000730A0002008A80083120313CA
:100E0000431C202F460883160313A50783120313E0
:100E1000470803110318470A0319112F83160313F8
:100E2000A60783120313480803110318480A03197D
:100E30001C2F83160313A7078312031383160313B0
:100E4000013003108312C50CC40CC30CFF3E031DFC
:100E5000212F01300310C60DC70DC80DFF3E031D25
:100E60002A2F013083160313A802031DFE2E09301A
:100E7000A0002008A80083120313431C5D2F46081E
:100E800083160313A50783120313470803110318DE
:100E9000470A03194E2F83160313A6078312031361
:100EA000480803110318480A0319592F831603131E
:100EB000A707831203138316031301300310831251
:100EC000C50CC40CC30CFF3E031D5E2F0130031084
:100ED00083160313A70CA60CA50CFF3E031D672F5A
:100EE0000130A802031D3B2F250883120313B50010
:100EF00083160313260883120313B6008316031305
:100F0000270883120313B700831603132408A000D5
:100F1000200883120313B800831603132908A100C5
:100F2000210883120313B9000A168A11FE228312C4
:100F300003133508C3003608C4003708C50008008D
:100F40000A128A1501200A128A1183120313D8018A
:100F5000D80A0A168A1589250A128A11003A031D31
:100F60000800831203135808031908000A168A158B
:100F7000B0240A128A11831203133608831603134E
:100F8000B60083120313350883160313B50004302B
:100F900036020030031935020318A92F9D30831241
:100FA0000313B6008430B7000A168A15F3250A1217
:100FB0008A11513083160313A5008630A600360827
:100FC000A8003508A700D6300A168A11EE260A12A4
:100FD0008A11D63083120313B6000130B7000A1607
:100FE0008A15F3250A128A110A128A1501200A129B
:0E0FF0008A11A92F013400340034003401347A
:101002000D300A168A155E240A128A150A300A164B
:101012008A155E24080083160317AE01AF012F085C
:10102200803AFF0080307F02031D192819302E02FA
:1010320003183328831603172E08903E8400831763
:1010420080010130AE070318AF0A0030AF072F0846
:10105200803AFF0080307F02031D312819302E02B2
:10106200031C1B28C03083120313C3007F30C4004B
:101072004430C500831603134F0883120313BE00C6
:10108200831603134E0883120313BD000A168A1136
:1010920000200A128A15831203133D08C6003E0877
:1010A200C7003F08C8000A168A11E6250A128A15E7
:1010B20083120313430883160317A9008312031331
:1010C200440883160317AA008312031345088316E4
:1010D2000317AB00290883120313C60083160317F4
:1010E2002A0883120313C700831603172B088312DF
:1010F2000313C8000030C300C830C4004230C5002A
:101102000A128A115A260A128A15831203134308F5
:1011120083160313AA0083120313440883160313CE
:10112200AB0083120313450883160313AC000A169F
:101132008A11DD230A128A15831603132B088316DC
:101142000317AD00831603132A0883160317AC0096
:10115200823083120313B5008430B60090300A1631
:101162008A15DB240A128A15513083160313A5004F
:101172008630A600831603172D0883160313A800D2
:10118200831603172C0883160313A700D6300A16FA
:101192008A11EE260A128A15D63083120313B5007D
:1011A2000130B60090300A168A1518260A128A15DE
:1011B200543083120313B5008630B60090300A16FD
:1011C2008A1518260A128A15903083120313B80062
:1011D2000130B9000A168A15C5240A128A150A12A4
:1011E2008A1501200A128A150A168A15852708000F
:1011F20083120313D801D80A0A168A15B0240A12D8
:101202008A1583120313360883160313C10083124F
:101212000313350883160313C0003D08C3003C08BE
:10122200C200102A8312010883160313BE00BF01F5
:101232003E0883120313B500831603133F0883127B
:101242000313B60083160313410883120313B80075
:1012520083160313400883120313B7000A168A1574
:1012620066250A128A15831203133608BC00350854
:10127200BB000A168A156E240A128A1583160313F6
:101282004308A1004208A0000A168A112F210A125F
:101292008A1583120313430883160313A3008312D0
:1012A2000313420883160313A2000A168A15112794
:1012B2000A128A15831603132108BD002008BC00F8
:1012C2003D084302031D67293C08420203186D29A9
:1012D2004308BD004208BC003D08B9003C08B80004
:1012E2000A128A1157200A128A15FF308316031335
:1012F200A0000030A1000A168A112F210A128A15B5
:1013020083120313430883160313A30083120313E8
:10131200420883160313A2000A168A1157220A12E0
:101322008A158316031320089200103083120313C8
:10133200B6008630B7000A168A15F3250A128A15F6
:10134200513083160313A5008630A6004108A80079
:101352004008A700D6300A168A11EE260A128A150C
:10136200D63083120313B6000130B7000A168A156D
:10137200F3250A128A15193083120313B600863038
:10138200B7000A168A15F3250A128A1551308316F8
:101392000313A5008630A6003D08A8003C08A7005C
:1013A200D6300A168A11EE260A128A15D630831210
:1013B2000313B6000130B7000A168A15F3250A1284
:1013C2008A152B3083120313B6008630B7000A1633
:1013D2008A15F3250A128A15513083160313A500C4
:1013E2008630A6001208BE00BF013E08A7003F08D3
:1013F200A800D6300A168A11EE260A128A15D630AD
:1014020083120313B6000130B7000A168A15F325BA
:101412000A128A150A128A1501200A128A150A1658
:101422008A1589250A128A15003A031D1D2A83127C
:1014320003135808031D1329053083120313B80040
:101442008430B9000A168A15C5240A128A153A3060
:1014520083120313B8008630B9000A168A15C52410
:1014620008001D3083120313B8008130B9000A1638
:101472008A15C5240A128A15CD3083120313B800C7
:101482008330B9000A168A15C5240A128A155C30FF
:1014920083120313B8008330B9000A168A15C524D3
:1014A2000A128A150A128A1501200A128A15273091
:1014B20083120313B8008530B9000A168A15C524B1
:1014C2000A128A157A3083120313B8008130B900E8
:1014D2000A168A15C5240A128A15F73083120313D5
:1014E200B8008530B9000A168A15C5240A128A1571
:1014F2000A128A1501200A128A153A30831203133E
:10150200B8008530B9000A168A15C5240A128A1550
:10151200D23083120313B8008130B9000A168A153B
:10152200C5240A128A15E53083120313B8008530E8
:10153200B9000A168A15C5240A128A150A128A15D2
:1015420001200A128A154D3083120313B800853028
:10155200B9000A168A15C5240A128A152730831281
:101562000313B8008230B9000A168A15C5240A127C
:101572008A15B33083120313B8008430B9000A16F7
:101582008A15C5240A128A150A128A1501200A121E
:101592008A15603083120313B8008530B9000A1629
:1015A2008A15C5240A128A157A3083120313B800E9
:1015B2008230B9000A168A15C5240A128A15C83063
:1015C20083120313B8008430B9000A168A15C524A1
:1015D2000A128A150A128A1501200A128A15733014
:1015E20083120313B8008530B9000A168A15C52480
:1015F2000A128A15163083120313B8008330B90019
:101602000A168A15C5240A128A1566308312031334
:10161200B8008430B9000A168A15C5240A128A1540
:101622000A128A1501200A128A15863083120313C0
:10163200B8008530B9000A168A15C5240A128A151F
:10164200283083120313B8008430B9000A168A15B1
:10165200C5240A128A15DB3083120313B8008430C2
:10166200B9000A168A15C5240A128A150A128A15A1
:1016720001200A128A15993083120313B8008530AB
:10168200B9000A168A15C5240A128A15FD3083127A
:101692000313B8008330B9000A168A15C5240A124A
:1016A2008A15EE3083120313B8008430B9000A168B
:1016B2008A15C5240A128A150A128A1501200A12ED
:1016C2008A15AC3083120313B8008530B9000A16AC
:1016D2008A15C5240A128A15CC3083120313B80066
:1016E2008230B9000A168A15C5240A128A151430E6
:1016F20083120313B8008530B9000A168A15C5246F
:101702000A128A15BF3083120313B8008530B9005C
:101712000A168A15C5240A128A15953083120313F4
:10172200B8008330B9000A168A15C5240A128A1530
:10173200013083120313B8008530B9000A168A15E6
:10174200C5240A128A150A128A1501200A128A155C
:10175200D23083120313B8008530B9000A168A15F5
:10176200C5240A128A15283083120313B800843064
:10177200B9000A168A15C5240A128A15DB308312AB
:101782000313B8008430B9000A168A15C5240A1258
:101792008A151C3083120313B8008130B9000A166F
:1017A2008A15C5240A128A150A128A1501200A12FC
:1017B2008A150A128A150120080041308312031388
:1017C200B5008630B6000530B7000030B800D13021
:1017D2000A168A11A5200A128A15831203133508E4
:1017E2003604031D962D4A30BB008630BC00D13032
:1017F2000A168A15A7260A128A15831203133C08B1
:1018020083120317DB00831203133B0883120317AF
:10181200DA00563083120313BB008630BC00D1308D
:101822000A168A15A7260A128A15831203133C0880
:1018320083120317E300831203133B088312031777
:10184200E2000E3083120313BB008630BC00D1309D
:101852000A168A15A7260A128A15831203133C0850
:1018620083160317CF00831203133B088316031753
:10187200CE0083120317E801E901D130831203136A
:10188200B5000030B6000A168A15AC250A128A1570
:10189200831203133608831203176902031D572CA0
:1018A20083120313350883120317680203183C2DB1
:1018B2005A08013E83160313C400831203175B0800
:1018C2000318013E003E83160313C500C409C5096F
:1018D200C40A0319C50A8312031762088316031385
:1018E2004407C6008312031763080318630A8316AA
:1018F20003134507C700831203176908803A83164A
:101902000313C8004708803A4802031D8C2C46087E
:101912008312031768020318A52C831203176808A1
:101922005A07013ED13E8400831300088316031335
:10193200C400831203176808B03E840083160313A1
:10194200440883178000C52CB03083120313B500FE
:101952000130B6000A168A15AC250A128A158312BE
:1019620003133608831203176902031DBE2C831268
:10197200031335088312031768020318C52C68087D
:10198200B03E840083178001831203176208013E70
:1019920083160313C4008312031763080318013E5E
:1019A200003E83160313C500C409C509C40A0319FE
:1019B200C50A831603174E08831603134407C6008D
:1019C200831603174F0803184F0A8316031345079C
:1019D200C700831203176908803A83160313C800ED
:1019E2004708803A4802031DFA2C4608831203175F
:1019F20068020318132D8312031768086207013E59
:101A0200D13E84008313000883160313C40083129B
:101A120003176808503E8400831603134408831793
:101A22008000332D503083120313B5000130B6000D
:101A32000A168A15AC250A128A1583120313360870
:101A4200831203176902031D2C2D83120313350819
:101A52008312031768020318332D6808503E84006E
:101A620083178001013083120317E8070318E90A7C
:101A72000030E9073E2CB0300A168A116C230A1294
:101A82008A15831203133C0883120317E1008312A1
:101A920003133B0883120317E00050300A168A1121
:101AA2006C230A128A15831203133C088316031748
:101AB200D500831203133B0883160317D400831245
:101AC20003175008031D752D610883160317D500EF
:101AD20083120317600883160317D400643083123D
:101AE2000317E0000030E100610883160313BD0014
:101AF20083120317600883160313BC0083160317AF
:101B0200540883160313BE00831603175508831661
:101B12000313BF000030BF1BFF30C000C1000A1614
:101B22008A116B240A128A15F12F4730831203138C
:101B3200B5008630B6000430B7000030B800D130AE
:101B42000A168A11A5200A128A1583120313350870
:101B52003604031D862E4A30BB008630BC00D130CD
:101B62000A168A15A7260A128A15831203133C083D
:101B720083120317DD00831203133B08831203173A
:101B8200DC000E3083120313BB008630BC00D13060
:101B92000A168A15A7260A128A15831203133C080D
:101BA20083160317D100831203133B08831603170E
:101BB200D00083120317E401E501D130831203132D
:101BC200B5000030B6000A168A15AC250A128A152D
:101BD200831203133608831203176502031DF72DC0
:101BE20083120313350883120317640203186E2E3F
:101BF2005C08013E83160313C400831203175D08B9
:101C02000318013E003E83160313C500C409C5092B
:101C1200C40A0319C50A831603175008831603134F
:101C22004407C6008316031751080318510A831686
:101C320003134507C700831203176508803A83160A
:101C42000313C8004708803A4802031D2C2E460899
:101C52008312031764020318452E831203176408C4
:101C62005C07013ED13E84008313000883160313F0
:101C7200C400831203176408BA3E84008316031358
:101C8200440883178000652EBA3083120313B5000F
:101C92000130B6000A168A15AC250A128A1583127B
:101CA20003133608831203176502031D5E2E831287
:101CB200031335088312031764020318652E6408A0
:101CC200BA3E840083178001013083120317E407B0
:101CD2000318E50A0030E507DE2DBA300A168A112C
:101CE2006C230A128A15831203133C08831603130A
:101CF200BD00831203133B0883160313BC000A16AC
:101D02008A1125200A128A15F12F4C3083120313EF
:101D1200B5008630B6000430B7000030B800D130CC
:101D22000A168A11A5200A128A158312031335088E
:101D32003604031D762F4A30BB008630BC00D130FA
:101D42000A168A15A7260A128A15831203133C085B
:101D520083120317DF00831203133B088312031756
:101D6200DE000E3083120313BB008630BC00D1307C
:101D72000A168A15A7260A128A15831203133C082B
:101D820083160317D300831203133B08831603172A
:101D9200D20083120317E601E701D1308312031345
:101DA200B5000030B6000A168A15AC250A128A154B
:101DB200831203133608831203176702031DE72EEB
:101DC20083120313350883120317660203185E2F6A
:101DD2005E08013E83160313C400831203175F08D3
:101DE2000318013E003E83160313C500C409C5094A
:101DF200C40A0319C50A831603175208831603136C
:101E02004407C6008316031753080318530A8316A0
:101E120003134507C700831203176708803A831626
:101E22000313C8004708803A4802031D1C2F4608C6
:101E32008312031766020318352F831203176608ED
:101E42005E07013ED13E840083130008831603130C
:101E5200C400831203176608C43E8400831603136A
:101E6200440883178000552FC43083120313B50032
:101E72000130B6000A168A15AC250A128A15831299
:101E820003133608831203176702031D4E2F8312B2
:101E9200031335088312031766020318552F6608C9
:101EA200C43E840083178001013083120317E607C2
:101EB2000318E70A0030E707CE2EC4300A168A114B
:101EC2006C230A128A15831203133C088316031328
:101ED200BD00831203133B0883160313BC000A12CE
:101EE2008A15F9200A128A15F12F3A308312031348
:101EF200B5008630B6000630B7000030B800D130E9
:101F02000A168A11A5200A128A15831203133508AC
:101F12003604031D922F0A168A1582240A128A1584
:101F2200F12F223083120313B5008630B600083039
:101F3200B7000030B800D1300A168A11A5200A1263
:101F42008A158312031335083604031DAE2F0A12B5
:101F52008A150C200A128A15F12F063083120313F8
:101F6200B5008630B6000830B7000030B800D13076
:101F72000A168A11A5200A128A158312031335083C
:101F82003604031DCA2F0A128A11A0270A128A15C3
:101F9200F12F333083120313B5008630B6000630BA
:101FA200B7000030B800D1300A168A11A5200A12F3
:101FB2008A158312031335083604031DE62F0A120D
:101FC2008A1532220A128A15F12F4A30831203131C
:101FD200B8008430B9000A168A15C5240A128A1577
:101FE2000A128A1501200A128A1558308312031325
:101FF200B6008630B7000A168A15F3250800831248
:102002000313C201BE1F0C28BD09BE09BD0A031974
:10201200BE0AC201C20A3D08B5003E08B600B701B9
:102022008E30C0004008B8004208C1004108B90023
:102032000A168A11FE22831203133508BD003608E0
:10204200BE003708BF000800831603133D08803A1C
:10205200FF0080307F02031D302865303C02031CE4
:10206200372883160313BC01BD01412883160313CD
:102072003C083D04031D41286430BC000030BD0013
:102082003D08B9003C08B8000A128A1157200A1606
:102092008A110A128A11A0270A168A1105308312A0
:1020A2000313B8008430B9000A168A15C5240A162B
:1020B2008A113A3083120313B8008630B9000A1627
:1020C2008A15C5240800003083120313C1000030B2
:1020D200C0000030BF000030BE00351C8428390823
:1020E200BE073A0803110318013E031DBF073B0850
:1020F20003110318013E031DC0073C080311031816
:10210200013E031DC1070130BD000310B90DBA0D18
:10211200BB0DBC0DBD0B862801300310B80CB70CEB
:10212200B60CB50CFF3E031D8E2838083704360462
:102132003504031D6E284108B8004008B7003F0867
:10214200B6003E08B500080083120313BB0001303D
:10215200B7020030031CB803B802370A0319380A61
:102162000319E6283608FF00350884000A128A118E
:1021720000210A168A11B9003B0884008313000863
:1021820039060319DD283608FF00350884000A12D3
:102192008A110021B900BA01B909BA09B90A0319A9
:1021A200BA0A3B088400831300083907B5003A08CD
:1021B20003183A0AB60008000130B9003908BB0713
:1021C2000130B5070318B60AA828B501B601080000
:1021D200831603138C1EF728831203138C1EF72811
:1021E2000A168A11BE210A168A1122290B1D1A29E2
:1021F2000B1101308312D1070318D20A0030D20723
:102202005208803AB0005008803A3002031D0B2970
:102212004F085102031C1A2983120313530803198E
:102222001A2995019B01171297121D129D12D801AE
:10223200D3018B1C22298B100A168A1107220A1637
:102242008A11831203133408FF0033088A0032080C
:102252008400310E8300FE0E7E0E090083120313EA
:102262005708B8005608B7005508B6005408B5001C
:102272004130BC00C630BB004E30BA006D30B900F0
:102282000A168A1164200A168A1183120313380867
:10229200D7003708D6003608D5003508D4003930C3
:1022A200D407303003183130D5070030031801301D
:1022B200D607003003180130D7075408C400550868
:1022C200C5005608C6005708C7001030C800470DA1
:1022D200C70CC60CC50CC40CC80B6829FF304405DA
:1022E200C2007F304505C3000800FF30831203138C
:1022F200D900B7003708DA008929813085294030B2
:1023020085292A3085292430831603139900AC29A4
:1023120083123608253A031998296E3A03199D2922
:102322003B3A0319A229F33A0319A729AC29350824
:10233200803A03197E29AC293508003A031980290D
:10234200AC293508803A03198229AC293508403A6C
:1023520003198429AC29831603131813981618122B
:102362001815831203139817181318169811831649
:1023720003138C160B178B17080083120313861C8A
:10238200C4298610C52986141A08F0007008F400C2
:102392003F30590603195A080319E4295A08F00074
:1023A200F101F01BF10301305907F200F3010318A8
:1023B200F30AD91BF30371087306031DE22970089F
:1023C2007206031DEE290130F00070088312031318
:1023D200DA0740305A060319DA013F308312031339
:1023E2005906031DF629D901FA290130F0007008B7
:1023F200D9077408F0005908103E8400700883174A
:1024020080005A0A031D0800DA0108000A168A151C
:1024120077240A168A1183120313D801D80A0A16DE
:102422008A15FD240A168A11003A031D0800831238
:1024320003135808031908000A168A159F240A165E
:102442008A11710883120313AF007008AE000430C2
:102452002F02003003192E020318102A9D30F100BA
:102462008430F2000A168A1520250A168A11513084
:1024720083120313A0008630A1002F08A3002E08A8
:10248200A200D6300A168A11FE240A168A11D63004
:10249200F1000130F2000A168A1520250A168A1167
:1024A2000A168A1577240A168A11102A831603132C
:1024B200A501A31F632AA209A309A20A0319A30A59
:1024C200A501A50AA11F6A2AA009A109A00A031948
:1024D200A10A2008210403199B2AA401A40AA11B12
:1024E200822A01300310A00DA10DFF3E031D732AA5
:1024F200013083120313C900490883160313A4078A
:10250200702A21082302031D882A20082202031CA4
:10251200902A2008A2022108031CA303A30201306F
:102522000310A10CA00CFF3E031D912A0130A4024E
:10253200031D822A25080319A32AA209A309A20AB4
:102542000319A30A2308A1002208A00008000A1602
:102552008A1589250A168A1183160313C9004908A8
:10256200CA004A08031908000A168A1543250A16E2
:102572008A1183160313C9004908CB000D304B069C
:10258200031DE62A0A128A15DE230A168A11831609
:102592000313D001CC01CD014D08803AFF008030F9
:1025A2007F02031DD62A19304C0203180800831635
:1025B20003134C08D13E8400831380010130CC0701
:1025C2000318CD0A0030CD07CD2A831603134B081A
:1025D200C9005008D13E8400490883138000500886
:1025E200D13E840000080A168A155E240130831643
:1025F2000313C9004908D0070800831203133808DF
:102602000319082B370836043504031D1B2B003031
:10261200B5000030B6000030B70008000130BA0043
:102622003A08B80701300310B70CB60CB50CFF3EE0
:10263200031D142BFE3037050319362B0F2B0130E7
:10264200BA003A08B8070130B50700300318013064
:10265200B607003003180130B70701300310B70C7A
:10266200B60CB50CFF3E031D2F2BFF3037050319A7
:10267200452B202B0130B80201300310B50DB60DE9
:10268200B70DFF3E031D3E2BB61B4B2B023038020B
:1026920003183B2B3818532BFF30B5057F30B60596
:1026A200FF30B7050310B80C3808BA00BB01BC01F3
:1026B20010300310BA0DBB0DBC0DFF3E031D5A2B8B
:1026C2003A08B5043B08B6043C08B70439080319B4
:1026D2000800B717080083120313C20042088400DF
:1026E200203083170006031D7B2B0130BD003D08FF
:1026F200C2076F2B42088400093000060319762BAB
:10270200C001C101BF01420884002D300006031D33
:102712008F2B0130BD003D08BF07952B4208840076
:102722002B300006031D992B0130BD003D08C20766
:102732004208840000080A168A158F240A168A1194
:10274200031CC72B831203134108B6004008B500CF
:102752000A30B7000030B8000A168A1566250A1634
:102762008A11831203134208840083170008350775
:10277200BD0036080318360ABE003D08D03EC00030
:102782003E080318013EFF3EC100952B831203133E
:102792003F080319D82B4009BD004109BE00BD0AFC
:1027A2000319BE0A3D08BB003E08BC0008004108F0
:1027B200BC004008BB000800831603132A08AE00C1
:1027C2002B08AF002C08B00003102F0D300DB10004
:1027D2003108B7003708031DF72B0030AD00003079
:1027E200AC000030AB000030AA0008002A08AE009E
:1027F2002B08AF002C08B00017300310B00CAF0C40
:10280200AE0CFF3E031DFE2B2E08B1003108B200B4
:10281200AB17FF30AA05FF30AB050030AC052A0824
:10282200B3002B08B4002C08B500B6018E30B702F5
:10283200B71F392C3708803A8F3E0318292C0030F5
:10284200AD000030AC000030AB000030AA00080040
:1028520001300310B60CB50CB40CB30CFF3E031DD3
:102862002A2C0130AE002E08B7070319542C292C4C
:1028720018303702031C512C0030AD000030AC0080
:102882000030AB000030AA0008000130AE00031097
:10289200B30DB40DB50DB60DAE0B482C0130B70219
:1028A2003708031D462C32080319622CB309B409F8
:1028B200B509B609B30A0319B40A0319B50A03190B
:1028C200B60A3608AD003508AC003408AB00330850
:1028D200AA000800831603133D08803AFF008030E7
:1028E2007F02031D762C65303C02031C7C2C831670
:1028F2000313BC01BD01831603133D08B9003C0854
:10290200B8000A128A1157200A168A11513083160A
:102912000313A5008630A6003D08A8003C08A700C6
:10292200D6300A168A11EE260A168A11D63083127A
:102932000313B8000130B9000A168A15C5240A1615
:102942008A11513083160313A5008630A600410870
:10295200AA004008A9003F08A8003E08A700D630F8
:102962000A168A11EE260A168A11D630831203132A
:10297200B8000130B9000A168A15C5240A168A1150
:1029820083160313410840043F043E04031DD22C66
:102992000A128A11A0270A168A110A168A15822497
:1029A200080083120313D301D30AD101D201831683
:1029B20003133F0883120313D000831603133E0848
:1029C20083120313CF000A128A11A0270A168A1152
:1029D200053083120313B8008430B9000A168A1531
:1029E200C5240A168A113A3083120313B8008630BE
:1029F200B9000A168A15C524080083120313AC0015
:102A02002230A4002408A7002108A5002008A40061
:102A1200A00A0319A10A2508FF00240884000A124B
:102A22008A1100210A168A11A6002608AD002D0877
:102A32000319E12D25302D0603192B2D2D08A40095
:102A42002C0884002408831780000130A400240885
:102A5200AC07052DA8012108A5002008A400A00AA2
:102A62000319A10A2508FF00240884000A128A110A
:102A720000210A168A11AD00003A0319E12D643AC9
:102A82000319472D0D3A0319472D052D27088400F8
:102A920083130008AA00840A0008AB000230A400D5
:102AA2002408A707AB1F5E2D0330A4002408A80446
:102AB200AA09AB09AA0A0319AB0AAD01AD0A05308E
:102AC2002D060319892D2D08A4002407123E840027
:102AD20081300318013EFF000A128A1100210A16F2
:102AE2008A11A5000A128A1100210A168A11A6006B
:102AF20026082B02031D7F2D25082A02031C892D7F
:102B02000130A4002408AD0705302D06031D642DF5
:102B1200280803390319982D2D30A4002C088400AD
:102B22002408831780000130A4002408AC072D0874
:102B3200A4002408A900FF30A4002408A907290A38
:102B42000319052D0A30F8000030F9002908A40005
:102B52002407123E840081300318013EFF000A124E
:102B62008A1100210A168A11F0000A128A11002124
:102B72000A168A11F1002B08F3002A08F2000A163D
:102B82008A1549270A168A117108FB007008FA0093
:102B92000A168A1575260A168A117808303E83129B
:102BA2000313A5002508AD002D08A4002C088400FD
:102BB2002408831780000130A4002408AC079C2D50
:102BC2002C0884008317800108008312031346082F
:102BD20083160313A00083120313470883160313FB
:102BE200A10083120313480883160313A2000310E3
:102BF200210D220DA3002308A8002808031D0A2E78
:102C0200003083120313C3000030C4000030C5003B
:102C120008008312430883160313A00083120313D0
:102C2200440883160313A100831203134508831675
:102C32000313A2000310210D220DA3002308A900F3
:102C42002908031D2D2E003083120313C300003008
:102C5200C4000030C5000800003083160313A5002D
:102C62000030A6000030A70089302907A000200804
:102C7200A80283120313460883160313A0008312CB
:102C82000313470883160313A10083120313480892
:102C920083160313A20010300310A20CA10CA00C87
:102CA200FF3E031D4D2E2008A3002308A900831216
:102CB2000313430883160313A0008312031344086B
:102CC20083160313A100831203134508831603130B
:102CD200A20010300310A20CA10CA00CFF3E031D99
:102CE2006B2E2008A3002308A9068030A00020082C
:102CF200A90583120313C717FF30C605FF30C705A6
:102D02000030C805C417FF30C305FF30C4050030CA
:102D1200C505183083160313A0002008A400013053
:102D22000310A50DA60DA70DFF3E031D912E8312C4
:102D3200031345084802031DA42E44084702031D3D
:102D4200A42E43084602031CB32E4308C6024408BD
:102D5200031C440FC7024508031C450AC802831618
:102D620003132514013003108312C60DC70DC80DBD
:102D7200FF3E031DB42E013083160313A402031D6C
:102D8200902E250883120313B50083160313260819
:102D920083120313B6008316031327088312031347
:102DA200B700831603132808A00020088312031318
:102DB200B800831603132908A10021088312031304
:102DC200B9000A168A11FE22831203133508C300C2
:102DD2003608C4003708C500080083160313B30081
:102DE200A730AB002B08AE002608AC002508AB00CC
:102DF200A50A0319A60A2C0883120313FF008316DF
:102E020003132B088400831203130A128A11002170
:102E12000A168A1183160313AD002D08B400340874
:102E22000319FB2F253034060319232F3408AB0076
:102E3200330884002B08831780000130AB002B0875
:102E4200B307F52EAF012608AC002508AB00A50A92
:102E52000319A60A2C0883120313FF008316031317
:102E62002B088400831203130A128A1100210A1606
:102E72008A1183160313B400003A0319FB2F643A34
:102E82000319472F0D3A0319472FF52E2E088400F8
:102E920083130008B100840A0008B2000230AB00BC
:102EA2002B08AE07B21F5E2F0330AB002B08AF0416
:102EB200B109B209B10A0319B20AB401B40A053060
:102EC20034060319912F3408AB002B07123E8400FD
:102ED20081300318013E83120313FF000A128A1184
:102EE20000210A168A1183160313AC0083120313FE
:102EF2000A128A1100210A168A1183160313AD00E1
:102F02002D083202031D872F2C083102031C912F3A
:102F12000130AB002B08B40705303406031D642FC3
:102F22002F0803390319A02F2D30AB00330884007A
:102F32002B08831780000130AB002B08B30734083D
:102F4200AB002B08B000FF30AB002B08B007300AF3
:102F52000319F52E0A30A0000030A1003008AB00A2
:102F62002B07123E840081300318013E83120313A3
:102F7200FF000A128A1100210A168A11B5000A12EC
:102F82008A1100210A168A11B60083160313320829
:102F920083120313B8008316031331088312031339
:102FA200B7000A168A15C2270A168A11831203135A
:102FB200360883160313A3008312031335088316FE
:102FC2000313A2000A168A1511270A168A118316FC
:102FD20003132008303EAC002C08B4003408AB00C8
:102FE200330884002B08831780000130AB002B08C4
:0E2FF200B307A42F3308840083178001080062
:1038AC00F000831203130C1E572C700899000800AB
:1038BC0083120313B5000C1E612C35089900080007
:1038CC0064008001840A0406031900340406672C82
:1038DC00831203133B08D4003C08D500D601D70152
:1038EC0008000D300A168A1556240A168A150A3055
:1038FC000A168A1556240800003083160313B800E4
:10390C00B9000A128A11572083120313D301D8016C
:10391C00080083120313B600B5013A3036020318BF
:10392C009D2C30303602031C9D2CB501B50A350C8C
:10393C000800A630F200F20BA12C00008312031336
:10394C001F151F19A72C1E08F100831603131E0840
:10395C00F0000800A53083120313B700B70BB42C8A
:10396C00B72C831203131F151F19BA2C1E08B6008F
:10397C00831603131E0883120313B50008000D30C1
:10398C000A168A155E240A168A150A300A168A1532
:10399C005E240A168A15831203133808B6003908F8
:1039AC00B7000A168A15F325080083120313B80012
:1039BC003808B7003708B9003608FF00350884000E
:1039CC000A128A1100210A168A15B70039088400D8
:1039DC003708831780000008031908000130B7006E
:1039EC003708B9070130B5070318B60AE22C831261
:1039FC0003135A0A031D042D003008005A08803A9C
:103A0C00F0005908803AF0020318112D5A03FF3ABE
:103A1C005907013E08005908803AF0005A08803ACC
:103A2C00F00203181E2D5A03FF3A5907413E0800B5
:103A3C0001300800720883120313FF007108840020
:103A4C000A128A1100210A168A15003A0319080075
:103A5C00720883120313FF00710884000A128A1182
:103A6C0000210A168A150A168A1556240A168A1572
:103A7C000130F1070318F20A202D831203135A0A9E
:103A8C00031D4A2D003008005A08103E840083178D
:103A9C000008B5003508B6005A085906031D5C2D00
:103AAC00FF30D900B5003508DA00642D0130B500BF
:103ABC003508DA0740305A060319DA0136080800CF
:103ACC0083120313B901BA01351C722D3708B907DB
:103ADC000318BA0A3808BA0701300310B70DB80D2D
:103AEC00FF3E031D732D01300310B60CB50CFF3EC9
:103AFC00031D7A2D35083604031D6A2D3A08B600CD
:103B0C003908B5000800831203135A0A031D902DBF
:103B1C00003008005A08803AB5005908803AB502BE
:103B2C0003189D2D5A03FF3A5907013E0800590806
:103B3C00803AB5005A08803AB5020318AA2D5A03E8
:103B4C00FF3A5907413E0800013008008312031365
:103B5C003508B9003608BA003908840083173A1CB6
:103B6C00831300080319BF2D0130B9070318BA0AD3
:103B7C00B22D3509B7003609B800B70A0319B80ACF
:103B8C0039083707B5003A0803183A0A3807B6005F
:103B9C000800831203133608FF00350884000A124C
:103BAC008A1100210A168A153706031908003608EF
:103BBC00BA003508B900B50A0319B60A3A08FF006D
:103BCC00390884000A128A1100210A168A15003A53
:103BDC00031DCF2DB501B60108008312031337085E
:103BEC00FF00360884000A128A1100210A168A1571
:103BFC00003A03190800831203133708FF00360834
:103C0C0084000A128A1100210A168A150A168A15CE
:103C1C005E240A168A15013083120313B6070318A3
:103C2C00B70AF32D83120313B8003808B70037080E
:103C3C00B90039088400831700080319322E0130AB
:103C4C00B7003708B9071F2E0130B7003708B9077E
:103C5C000130B5070318B60A3608FF003508840092
:103C6C000A128A1100210A168A15B7003908840035
:103C7C003708831780000008031908002A2E00302B
:103C8C0083120313B5004B30B6000A168A11762145
:103C9C000A168A150A168A15DA260A168A15831642
:103CAC000313CE01CF01D0010A168A1582240A16FD
:103CBC008A150A128A1532220A168A15583083126E
:103CCC000313B6008630B7000A168A15F3250A16B8
:103CDC008A150A168A11A8220A168A156F2E7808D8
:103CEC0079040319A22EFD01FD0AF91B892E01305E
:103CFC000310F80DF90DFF3E031D7E2E0130FC0064
:103D0C007C08FD077B2E79087B02031D8F2E78081B
:103D1C007A02031C972E7808FA027908031CFB031D
:103D2C00FB0201300310F90CF80CFF3E031D982E1A
:103D3C000130FD02031D892E7B08F9007A08F8007A
:103D4C00080083120313C100BF01C001B72E01305C
:103D5C00BD003D08C1070130BF070318C00A003081
:103D6C00C00741088400831300080319D52E3B08B3
:103D7C00B5003C08B600410884000008BD00BE0137
:103D8C003D08B7003E08B8000A168A15CF250A165A
:103D9C008A1583120313350836040319AD2E400817
:103DAC00BC003F08BB0008000130831603138500DC
:103DBC0083120313850101308316031386008312CB
:103DCC0003138601803083160313870083120313B9
:103DDC008701831603138801831203138801813032
:103DEC009F008E30831603139F0007308100A03094
:103DFC008B00EC3083120313810095010C3097007B
:103E0C000C309D00FF308316031392000730831291
:103E1C0003139200080083160313200821040319CE
:103E2C00442FA401A40AA11B2B2F01300310A00DB9
:103E3C00A10DFF3E031D1C2F013083120313C9007B
:103E4C00490883160313A407192F21082302031D05
:103E5C00312F20082202031C392F2008A20221082E
:103E6C00031CA303A30201300310A10CA00CFF3E02
:103E7C00031D3A2F0130A402031D2B2F2308A10090
:103E8C002208A0000800F501F6017008710403195E
:103E9C00802FF701F70AF11B5F2F01300310F00D93
:103EAC00F10DFF3E031D542F0130F4007408F70789
:103EBC00512F01300310F50DF60DFF3E031D602F41
:103ECC0071087302031D6C2F70087202031C752F8E
:103EDC007008F2027108031CF303F302751401302D
:103EEC000310F10CF00CFF3E031D762F0130F7028E
:103EFC00031D5F2F7608F1007508F00008000A1604
:103F0C008A15B0240A168A158312031336088316F1
:103F1C000313B60083120313350883160313B5007D
:103F2C0004303602003003193502031808009D30A6
:103F3C0083120313B6008430B7000A168A15F325D2
:103F4C000A168A15513083160313A5008630A60075
:103F5C003608A8003508A700D6300A168A11EE26B6
:103F6C000A168A15D63083120313B6000130B70037
:103F7C000A168A15F325080083120313BB01BC0132
:103F8C00350836040319FB2FBA01BA0AB61BDA2F0F
:103F9C0001300310B50DB60DFF3E031DCF2F0130C0
:103FAC00B9003908BA07CC2F01300310BB0DBC0D7A
:103FBC00FF3E031DDB2F36083802031DE72F3508A3
:103FCC003702031CF02F3508B7023608031CB80360
:103FDC00B8023B1401300310B60CB50CFF3E031DA8
:103FEC00F12F0130BA02031DDA2F3C08B6003B0852
:043FFC00B500080004
:02400E00723FFF
:00000001FF
